{
  "address": "0xe7f1725E7734CE288F8367e1Bb143E90bb3F0512",
  "abi": [
    {
      "inputs": [
        {
          "internalType": "uint256",
          "name": "_endTime",
          "type": "uint256"
        },
        {
          "internalType": "uint256",
          "name": "_fundingGoal",
          "type": "uint256"
        }
      ],
      "stateMutability": "nonpayable",
      "type": "constructor"
    },
    {
      "inputs": [
        {
          "internalType": "address",
          "name": "spender",
          "type": "address"
        },
        {
          "internalType": "uint256",
          "name": "allowance",
          "type": "uint256"
        },
        {
          "internalType": "uint256",
          "name": "needed",
          "type": "uint256"
        }
      ],
      "name": "ERC20InsufficientAllowance",
      "type": "error"
    },
    {
      "inputs": [
        {
          "internalType": "address",
          "name": "sender",
          "type": "address"
        },
        {
          "internalType": "uint256",
          "name": "balance",
          "type": "uint256"
        },
        {
          "internalType": "uint256",
          "name": "needed",
          "type": "uint256"
        }
      ],
      "name": "ERC20InsufficientBalance",
      "type": "error"
    },
    {
      "inputs": [
        {
          "internalType": "address",
          "name": "approver",
          "type": "address"
        }
      ],
      "name": "ERC20InvalidApprover",
      "type": "error"
    },
    {
      "inputs": [
        {
          "internalType": "address",
          "name": "receiver",
          "type": "address"
        }
      ],
      "name": "ERC20InvalidReceiver",
      "type": "error"
    },
    {
      "inputs": [
        {
          "internalType": "address",
          "name": "sender",
          "type": "address"
        }
      ],
      "name": "ERC20InvalidSender",
      "type": "error"
    },
    {
      "inputs": [
        {
          "internalType": "address",
          "name": "spender",
          "type": "address"
        }
      ],
      "name": "ERC20InvalidSpender",
      "type": "error"
    },
    {
      "inputs": [],
      "name": "RefundNotAvailable",
      "type": "error"
    },
    {
      "inputs": [],
      "name": "TransferLock",
      "type": "error"
    },
    {
      "anonymous": false,
      "inputs": [
        {
          "indexed": true,
          "internalType": "address",
          "name": "owner",
          "type": "address"
        },
        {
          "indexed": true,
          "internalType": "address",
          "name": "spender",
          "type": "address"
        },
        {
          "indexed": false,
          "internalType": "uint256",
          "name": "value",
          "type": "uint256"
        }
      ],
      "name": "Approval",
      "type": "event"
    },
    {
      "anonymous": false,
      "inputs": [
        {
          "indexed": true,
          "internalType": "address",
          "name": "from",
          "type": "address"
        },
        {
          "indexed": true,
          "internalType": "address",
          "name": "to",
          "type": "address"
        },
        {
          "indexed": false,
          "internalType": "uint256",
          "name": "value",
          "type": "uint256"
        }
      ],
      "name": "Transfer",
      "type": "event"
    },
    {
      "inputs": [
        {
          "internalType": "address",
          "name": "owner",
          "type": "address"
        },
        {
          "internalType": "address",
          "name": "spender",
          "type": "address"
        }
      ],
      "name": "allowance",
      "outputs": [
        {
          "internalType": "uint256",
          "name": "",
          "type": "uint256"
        }
      ],
      "stateMutability": "view",
      "type": "function"
    },
    {
      "inputs": [
        {
          "internalType": "address",
          "name": "spender",
          "type": "address"
        },
        {
          "internalType": "uint256",
          "name": "value",
          "type": "uint256"
        }
      ],
      "name": "approve",
      "outputs": [
        {
          "internalType": "bool",
          "name": "",
          "type": "bool"
        }
      ],
      "stateMutability": "nonpayable",
      "type": "function"
    },
    {
      "inputs": [
        {
          "internalType": "address",
          "name": "account",
          "type": "address"
        }
      ],
      "name": "balanceOf",
      "outputs": [
        {
          "internalType": "uint256",
          "name": "",
          "type": "uint256"
        }
      ],
      "stateMutability": "view",
      "type": "function"
    },
    {
      "inputs": [],
      "name": "claim",
      "outputs": [
        {
          "internalType": "uint256",
          "name": "claimedAmount",
          "type": "uint256"
        }
      ],
      "stateMutability": "nonpayable",
      "type": "function"
    },
    {
      "inputs": [
        {
          "internalType": "address",
          "name": "",
          "type": "address"
        }
      ],
      "name": "contributions",
      "outputs": [
        {
          "internalType": "uint256",
          "name": "",
          "type": "uint256"
        }
      ],
      "stateMutability": "view",
      "type": "function"
    },
    {
      "inputs": [],
      "name": "decimals",
      "outputs": [
        {
          "internalType": "uint8",
          "name": "",
          "type": "uint8"
        }
      ],
      "stateMutability": "view",
      "type": "function"
    },
    {
      "inputs": [],
      "name": "endTime",
      "outputs": [
        {
          "internalType": "uint256",
          "name": "",
          "type": "uint256"
        }
      ],
      "stateMutability": "view",
      "type": "function"
    },
    {
      "inputs": [],
      "name": "fundingGoal",
      "outputs": [
        {
          "internalType": "uint256",
          "name": "",
          "type": "uint256"
        }
      ],
      "stateMutability": "view",
      "type": "function"
    },
    {
      "inputs": [],
      "name": "name",
      "outputs": [
        {
          "internalType": "string",
          "name": "",
          "type": "string"
        }
      ],
      "stateMutability": "view",
      "type": "function"
    },
    {
      "inputs": [],
      "name": "symbol",
      "outputs": [
        {
          "internalType": "string",
          "name": "",
          "type": "string"
        }
      ],
      "stateMutability": "view",
      "type": "function"
    },
    {
      "inputs": [],
      "name": "totalSupply",
      "outputs": [
        {
          "internalType": "uint256",
          "name": "",
          "type": "uint256"
        }
      ],
      "stateMutability": "view",
      "type": "function"
    },
    {
      "inputs": [
        {
          "internalType": "address",
          "name": "to",
          "type": "address"
        },
        {
          "internalType": "uint256",
          "name": "value",
          "type": "uint256"
        }
      ],
      "name": "transfer",
      "outputs": [
        {
          "internalType": "bool",
          "name": "",
          "type": "bool"
        }
      ],
      "stateMutability": "nonpayable",
      "type": "function"
    },
    {
      "inputs": [
        {
          "internalType": "address",
          "name": "from",
          "type": "address"
        },
        {
          "internalType": "address",
          "name": "to",
          "type": "address"
        },
        {
          "internalType": "uint256",
          "name": "value",
          "type": "uint256"
        }
      ],
      "name": "transferFrom",
      "outputs": [
        {
          "internalType": "bool",
          "name": "",
          "type": "bool"
        }
      ],
      "stateMutability": "nonpayable",
      "type": "function"
    },
    {
      "stateMutability": "payable",
      "type": "receive"
    }
  ],
  "transactionHash": "0x02a92502cc7a438f035da9cee47219e2aa2d8f8b4cc9c92221e180114c23cf40",
  "args": [
    1700261825,
    "1000000000000000000"
  ],
  "numDeployments": 1,
  "solcInputHash": "0f32cae6236eca995c17b6301e0c4beb",
  "bytecode": "0x60806040523480156200001157600080fd5b50604051620017343803806200173483398181016040528101906200003791906200011f565b6040518060400160405280600781526020017f4d79546f6b656e000000000000000000000000000000000000000000000000008152506040518060400160405280600481526020017f4d544b4e000000000000000000000000000000000000000000000000000000008152508160039081620000b49190620003d6565b508060049081620000c69190620003d6565b50505081600581905550806006819055505050620004bd565b600080fd5b6000819050919050565b620000f981620000e4565b81146200010557600080fd5b50565b6000815190506200011981620000ee565b92915050565b60008060408385031215620001395762000138620000df565b5b6000620001498582860162000108565b92505060206200015c8582860162000108565b9150509250929050565b600081519050919050565b7f4e487b7100000000000000000000000000000000000000000000000000000000600052604160045260246000fd5b7f4e487b7100000000000000000000000000000000000000000000000000000000600052602260045260246000fd5b60006002820490506001821680620001e857607f821691505b602082108103620001fe57620001fd620001a0565b5b50919050565b60008190508160005260206000209050919050565b60006020601f8301049050919050565b600082821b905092915050565b600060088302620002687fffffffffffffffffffffffffffffffffffffffffffffffffffffffffffffffff8262000229565b62000274868362000229565b95508019841693508086168417925050509392505050565b6000819050919050565b6000620002b7620002b1620002ab84620000e4565b6200028c565b620000e4565b9050919050565b6000819050919050565b620002d38362000296565b620002eb620002e282620002be565b84845462000236565b825550505050565b600090565b62000302620002f3565b6200030f818484620002c8565b505050565b5b8181101562000337576200032b600082620002f8565b60018101905062000315565b5050565b601f8211156200038657620003508162000204565b6200035b8462000219565b810160208510156200036b578190505b620003836200037a8562000219565b83018262000314565b50505b505050565b600082821c905092915050565b6000620003ab600019846008026200038b565b1980831691505092915050565b6000620003c6838362000398565b9150826002028217905092915050565b620003e18262000166565b67ffffffffffffffff811115620003fd57620003fc62000171565b5b620004098254620001cf565b620004168282856200033b565b600060209050601f8311600181146200044e576000841562000439578287015190505b620004458582620003b8565b865550620004b5565b601f1984166200045e8662000204565b60005b82811015620004885784890151825560018201915060208501945060208101905062000461565b86831015620004a85784890151620004a4601f89168262000398565b8355505b6001600288020188555050505b505050505050565b61126780620004cd6000396000f3fe6080604052600436106100c65760003560e01c806342e94c901161007f5780637a3a0e84116100595780637a3a0e841461030657806395d89b4114610331578063a9059cbb1461035c578063dd62ed3e1461039957610136565b806342e94c90146102615780634e71d92d1461029e57806370a08231146102c957610136565b806306fdde031461013b578063095ea7b31461016657806318160ddd146101a357806323b872dd146101ce578063313ce5671461020b5780633197cbb61461023657610136565b366101365760003414610134576100dd33346103d6565b34600760003373ffffffffffffffffffffffffffffffffffffffff1673ffffffffffffffffffffffffffffffffffffffff168152602001908152602001600020600082825461012c9190610e64565b925050819055505b005b600080fd5b34801561014757600080fd5b50610150610458565b60405161015d9190610f28565b60405180910390f35b34801561017257600080fd5b5061018d60048036038101906101889190610fd9565b6104ea565b60405161019a9190611034565b60405180910390f35b3480156101af57600080fd5b506101b861050d565b6040516101c5919061105e565b60405180910390f35b3480156101da57600080fd5b506101f560048036038101906101f09190611079565b610517565b6040516102029190611034565b60405180910390f35b34801561021757600080fd5b50610220610546565b60405161022d91906110e8565b60405180910390f35b34801561024257600080fd5b5061024b61054f565b604051610258919061105e565b60405180910390f35b34801561026d57600080fd5b5061028860048036038101906102839190611103565b610555565b604051610295919061105e565b60405180910390f35b3480156102aa57600080fd5b506102b361056d565b6040516102c0919061105e565b60405180910390f35b3480156102d557600080fd5b506102f060048036038101906102eb9190611103565b610672565b6040516102fd919061105e565b60405180910390f35b34801561031257600080fd5b5061031b6106ba565b604051610328919061105e565b60405180910390f35b34801561033d57600080fd5b506103466106c0565b6040516103539190610f28565b60405180910390f35b34801561036857600080fd5b50610383600480360381019061037e9190610fd9565b610752565b6040516103909190611034565b60405180910390f35b3480156103a557600080fd5b506103c060048036038101906103bb9190611130565b610775565b6040516103cd919061105e565b60405180910390f35b600073ffffffffffffffffffffffffffffffffffffffff168273ffffffffffffffffffffffffffffffffffffffff16036104485760006040517fec442f0500000000000000000000000000000000000000000000000000000000815260040161043f919061117f565b60405180910390fd5b610454600083836107fc565b5050565b606060038054610467906111c9565b80601f0160208091040260200160405190810160405280929190818152602001828054610493906111c9565b80156104e05780601f106104b5576101008083540402835291602001916104e0565b820191906000526020600020905b8154815290600101906020018083116104c357829003601f168201915b5050505050905090565b6000806104f561088d565b9050610502818585610895565b600191505092915050565b6000600254905090565b60008061052261088d565b905061052f8582856108a7565b61053a85858561093b565b60019150509392505050565b60006012905090565b60055481565b60076020528060005260406000206000915090505481565b60006005544210156105ab576040517f0b4d698100000000000000000000000000000000000000000000000000000000815260040160405180910390fd5b60065447106105e6576040517f0b4d698100000000000000000000000000000000000000000000000000000000815260040160405180910390fd5b600760003373ffffffffffffffffffffffffffffffffffffffff1673ffffffffffffffffffffffffffffffffffffffff1681526020019081526020016000205490503373ffffffffffffffffffffffffffffffffffffffff166108fc829081150290604051600060405180830381858888f1935050505015801561066e573d6000803e3d6000fd5b5090565b60008060008373ffffffffffffffffffffffffffffffffffffffff1673ffffffffffffffffffffffffffffffffffffffff168152602001908152602001600020549050919050565b60065481565b6060600480546106cf906111c9565b80601f01602080910402602001604051908101604052809291908181526020018280546106fb906111c9565b80156107485780601f1061071d57610100808354040283529160200191610748565b820191906000526020600020905b81548152906001019060200180831161072b57829003601f168201915b5050505050905090565b60008061075d61088d565b905061076a81858561093b565b600191505092915050565b6000600160008473ffffffffffffffffffffffffffffffffffffffff1673ffffffffffffffffffffffffffffffffffffffff16815260200190815260200160002060008373ffffffffffffffffffffffffffffffffffffffff1673ffffffffffffffffffffffffffffffffffffffff16815260200190815260200160002054905092915050565b600073ffffffffffffffffffffffffffffffffffffffff168373ffffffffffffffffffffffffffffffffffffffff16141580156108465750600554421080610845575060065447105b5b1561087d576040517f8574646f00000000000000000000000000000000000000000000000000000000815260040160405180910390fd5b610888838383610a2f565b505050565b600033905090565b6108a28383836001610c54565b505050565b60006108b38484610775565b90507fffffffffffffffffffffffffffffffffffffffffffffffffffffffffffffffff81146109355781811015610925578281836040517ffb8f41b200000000000000000000000000000000000000000000000000000000815260040161091c939291906111fa565b60405180910390fd5b61093484848484036000610c54565b5b50505050565b600073ffffffffffffffffffffffffffffffffffffffff168373ffffffffffffffffffffffffffffffffffffffff16036109ad5760006040517f96c6fd1e0000000000000000000000000000000000000000000000000000000081526004016109a4919061117f565b60405180910390fd5b600073ffffffffffffffffffffffffffffffffffffffff168273ffffffffffffffffffffffffffffffffffffffff1603610a1f5760006040517fec442f05000000000000000000000000000000000000000000000000000000008152600401610a16919061117f565b60405180910390fd5b610a2a8383836107fc565b505050565b600073ffffffffffffffffffffffffffffffffffffffff168373ffffffffffffffffffffffffffffffffffffffff1603610a81578060026000828254610a759190610e64565b92505081905550610b54565b60008060008573ffffffffffffffffffffffffffffffffffffffff1673ffffffffffffffffffffffffffffffffffffffff16815260200190815260200160002054905081811015610b0d578381836040517fe450d38c000000000000000000000000000000000000000000000000000000008152600401610b04939291906111fa565b60405180910390fd5b8181036000808673ffffffffffffffffffffffffffffffffffffffff1673ffffffffffffffffffffffffffffffffffffffff16815260200190815260200160002081905550505b600073ffffffffffffffffffffffffffffffffffffffff168273ffffffffffffffffffffffffffffffffffffffff1603610b9d5780600260008282540392505081905550610bea565b806000808473ffffffffffffffffffffffffffffffffffffffff1673ffffffffffffffffffffffffffffffffffffffff168152602001908152602001600020600082825401925050819055505b8173ffffffffffffffffffffffffffffffffffffffff168373ffffffffffffffffffffffffffffffffffffffff167fddf252ad1be2c89b69c2b068fc378daa952ba7f163c4a11628f55a4df523b3ef83604051610c47919061105e565b60405180910390a3505050565b600073ffffffffffffffffffffffffffffffffffffffff168473ffffffffffffffffffffffffffffffffffffffff1603610cc65760006040517fe602df05000000000000000000000000000000000000000000000000000000008152600401610cbd919061117f565b60405180910390fd5b600073ffffffffffffffffffffffffffffffffffffffff168373ffffffffffffffffffffffffffffffffffffffff1603610d385760006040517f94280d62000000000000000000000000000000000000000000000000000000008152600401610d2f919061117f565b60405180910390fd5b81600160008673ffffffffffffffffffffffffffffffffffffffff1673ffffffffffffffffffffffffffffffffffffffff16815260200190815260200160002060008573ffffffffffffffffffffffffffffffffffffffff1673ffffffffffffffffffffffffffffffffffffffff168152602001908152602001600020819055508015610e25578273ffffffffffffffffffffffffffffffffffffffff168473ffffffffffffffffffffffffffffffffffffffff167f8c5be1e5ebec7d5bd14f71427d1e84f3dd0314c0f7b2291e5b200ac8c7c3b92584604051610e1c919061105e565b60405180910390a35b50505050565b6000819050919050565b7f4e487b7100000000000000000000000000000000000000000000000000000000600052601160045260246000fd5b6000610e6f82610e2b565b9150610e7a83610e2b565b9250828201905080821115610e9257610e91610e35565b5b92915050565b600081519050919050565b600082825260208201905092915050565b60005b83811015610ed2578082015181840152602081019050610eb7565b60008484015250505050565b6000601f19601f8301169050919050565b6000610efa82610e98565b610f048185610ea3565b9350610f14818560208601610eb4565b610f1d81610ede565b840191505092915050565b60006020820190508181036000830152610f428184610eef565b905092915050565b600080fd5b600073ffffffffffffffffffffffffffffffffffffffff82169050919050565b6000610f7a82610f4f565b9050919050565b610f8a81610f6f565b8114610f9557600080fd5b50565b600081359050610fa781610f81565b92915050565b610fb681610e2b565b8114610fc157600080fd5b50565b600081359050610fd381610fad565b92915050565b60008060408385031215610ff057610fef610f4a565b5b6000610ffe85828601610f98565b925050602061100f85828601610fc4565b9150509250929050565b60008115159050919050565b61102e81611019565b82525050565b60006020820190506110496000830184611025565b92915050565b61105881610e2b565b82525050565b6000602082019050611073600083018461104f565b92915050565b60008060006060848603121561109257611091610f4a565b5b60006110a086828701610f98565b93505060206110b186828701610f98565b92505060406110c286828701610fc4565b9150509250925092565b600060ff82169050919050565b6110e2816110cc565b82525050565b60006020820190506110fd60008301846110d9565b92915050565b60006020828403121561111957611118610f4a565b5b600061112784828501610f98565b91505092915050565b6000806040838503121561114757611146610f4a565b5b600061115585828601610f98565b925050602061116685828601610f98565b9150509250929050565b61117981610f6f565b82525050565b60006020820190506111946000830184611170565b92915050565b7f4e487b7100000000000000000000000000000000000000000000000000000000600052602260045260246000fd5b600060028204905060018216806111e157607f821691505b6020821081036111f4576111f361119a565b5b50919050565b600060608201905061120f6000830186611170565b61121c602083018561104f565b611229604083018461104f565b94935050505056fea26469706673582212204b0354a5a045a2ade864c3df15cc6f5800ba50203dc16467840f9abe90481f3164736f6c63430008140033",
  "devdoc": {
    "errors": {
      "ERC20InsufficientAllowance(address,uint256,uint256)": [
        {
          "details": "Indicates a failure with the `spender`s `allowance`. Used in transfers.",
          "params": {
            "allowance": "Amount of tokens a `spender` is allowed to operate with.",
            "needed": "Minimum amount required to perform a transfer.",
            "spender": "Address that may be allowed to operate on tokens without being their owner."
          }
        }
      ],
      "ERC20InsufficientBalance(address,uint256,uint256)": [
        {
          "details": "Indicates an error related to the current `balance` of a `sender`. Used in transfers.",
          "params": {
            "balance": "Current balance for the interacting account.",
            "needed": "Minimum amount required to perform a transfer.",
            "sender": "Address whose tokens are being transferred."
          }
        }
      ],
      "ERC20InvalidApprover(address)": [
        {
          "details": "Indicates a failure with the `approver` of a token to be approved. Used in approvals.",
          "params": {
            "approver": "Address initiating an approval operation."
          }
        }
      ],
      "ERC20InvalidReceiver(address)": [
        {
          "details": "Indicates a failure with the token `receiver`. Used in transfers.",
          "params": {
            "receiver": "Address to which tokens are being transferred."
          }
        }
      ],
      "ERC20InvalidSender(address)": [
        {
          "details": "Indicates a failure with the token `sender`. Used in transfers.",
          "params": {
            "sender": "Address whose tokens are being transferred."
          }
        }
      ],
      "ERC20InvalidSpender(address)": [
        {
          "details": "Indicates a failure with the `spender` to be approved. Used in approvals.",
          "params": {
            "spender": "Address that may be allowed to operate on tokens without being their owner."
          }
        }
      ]
    },
    "events": {
      "Approval(address,address,uint256)": {
        "details": "Emitted when the allowance of a `spender` for an `owner` is set by a call to {approve}. `value` is the new allowance."
      },
      "Transfer(address,address,uint256)": {
        "details": "Emitted when `value` tokens are moved from one account (`from`) to another (`to`). Note that `value` may be zero."
      }
    },
    "kind": "dev",
    "methods": {
      "allowance(address,address)": {
        "details": "See {IERC20-allowance}."
      },
      "approve(address,uint256)": {
        "details": "See {IERC20-approve}. NOTE: If `value` is the maximum `uint256`, the allowance is not updated on `transferFrom`. This is semantically equivalent to an infinite approval. Requirements: - `spender` cannot be the zero address."
      },
      "balanceOf(address)": {
        "details": "See {IERC20-balanceOf}."
      },
      "decimals()": {
        "details": "Returns the number of decimals used to get its user representation. For example, if `decimals` equals `2`, a balance of `505` tokens should be displayed to a user as `5.05` (`505 / 10 ** 2`). Tokens usually opt for a value of 18, imitating the relationship between Ether and Wei. This is the default value returned by this function, unless it's overridden. NOTE: This information is only used for _display_ purposes: it in no way affects any of the arithmetic of the contract, including {IERC20-balanceOf} and {IERC20-transfer}."
      },
      "name()": {
        "details": "Returns the name of the token."
      },
      "symbol()": {
        "details": "Returns the symbol of the token, usually a shorter version of the name."
      },
      "totalSupply()": {
        "details": "See {IERC20-totalSupply}."
      },
      "transfer(address,uint256)": {
        "details": "See {IERC20-transfer}. Requirements: - `to` cannot be the zero address. - the caller must have a balance of at least `value`."
      },
      "transferFrom(address,address,uint256)": {
        "details": "See {IERC20-transferFrom}. Emits an {Approval} event indicating the updated allowance. This is not required by the EIP. See the note at the beginning of {ERC20}. NOTE: Does not update the allowance if the current allowance is the maximum `uint256`. Requirements: - `from` and `to` cannot be the zero address. - `from` must have a balance of at least `value`. - the caller must have allowance for ``from``'s tokens of at least `value`."
      }
    },
    "version": 1
  },
  "userdoc": {
    "kind": "user",
    "methods": {},
    "version": 1
  },
  "storageLayout": {
    "storage": [
      {
        "astId": 159,
        "contract": "contracts/CrowdFund.sol:CrowdFund",
        "label": "_balances",
        "offset": 0,
        "slot": "0",
        "type": "t_mapping(t_address,t_uint256)"
      },
      {
        "astId": 165,
        "contract": "contracts/CrowdFund.sol:CrowdFund",
        "label": "_allowances",
        "offset": 0,
        "slot": "1",
        "type": "t_mapping(t_address,t_mapping(t_address,t_uint256))"
      },
      {
        "astId": 167,
        "contract": "contracts/CrowdFund.sol:CrowdFund",
        "label": "_totalSupply",
        "offset": 0,
        "slot": "2",
        "type": "t_uint256"
      },
      {
        "astId": 169,
        "contract": "contracts/CrowdFund.sol:CrowdFund",
        "label": "_name",
        "offset": 0,
        "slot": "3",
        "type": "t_string_storage"
      },
      {
        "astId": 171,
        "contract": "contracts/CrowdFund.sol:CrowdFund",
        "label": "_symbol",
        "offset": 0,
        "slot": "4",
        "type": "t_string_storage"
      },
      {
        "astId": 789,
        "contract": "contracts/CrowdFund.sol:CrowdFund",
        "label": "endTime",
        "offset": 0,
        "slot": "5",
        "type": "t_uint256"
      },
      {
        "astId": 791,
        "contract": "contracts/CrowdFund.sol:CrowdFund",
        "label": "fundingGoal",
        "offset": 0,
        "slot": "6",
        "type": "t_uint256"
      },
      {
        "astId": 795,
        "contract": "contracts/CrowdFund.sol:CrowdFund",
        "label": "contributions",
        "offset": 0,
        "slot": "7",
        "type": "t_mapping(t_address,t_uint256)"
      }
    ],
    "types": {
      "t_address": {
        "encoding": "inplace",
        "label": "address",
        "numberOfBytes": "20"
      },
      "t_mapping(t_address,t_mapping(t_address,t_uint256))": {
        "encoding": "mapping",
        "key": "t_address",
        "label": "mapping(address => mapping(address => uint256))",
        "numberOfBytes": "32",
        "value": "t_mapping(t_address,t_uint256)"
      },
      "t_mapping(t_address,t_uint256)": {
        "encoding": "mapping",
        "key": "t_address",
        "label": "mapping(address => uint256)",
        "numberOfBytes": "32",
        "value": "t_uint256"
      },
      "t_string_storage": {
        "encoding": "bytes",
        "label": "string",
        "numberOfBytes": "32"
      },
      "t_uint256": {
        "encoding": "inplace",
        "label": "uint256",
        "numberOfBytes": "32"
      }
    }
  }
}