{
  "abi": [
    {
      "inputs": [
        {
          "internalType": "uint256",
          "name": "_endTime",
          "type": "uint256"
        },
        {
          "internalType": "uint256",
          "name": "_fundingGoal",
          "type": "uint256"
        },
        {
          "components": [
            {
              "internalType": "uint256",
              "name": "team",
              "type": "uint256"
            },
            {
              "internalType": "uint256",
              "name": "liquidity",
              "type": "uint256"
            },
            {
              "internalType": "uint256",
              "name": "marketing",
              "type": "uint256"
            },
            {
              "internalType": "uint256",
              "name": "investors",
              "type": "uint256"
            },
            {
              "internalType": "uint256",
              "name": "crowdFund",
              "type": "uint256"
            }
          ],
          "internalType": "struct Tokenomics",
          "name": "_tokenomics",
          "type": "tuple"
        }
      ],
      "stateMutability": "nonpayable",
      "type": "constructor"
    },
    {
      "inputs": [],
      "name": "AlreadyComplete",
      "type": "error"
    },
    {
      "inputs": [
        {
          "internalType": "address",
          "name": "spender",
          "type": "address"
        },
        {
          "internalType": "uint256",
          "name": "allowance",
          "type": "uint256"
        },
        {
          "internalType": "uint256",
          "name": "needed",
          "type": "uint256"
        }
      ],
      "name": "ERC20InsufficientAllowance",
      "type": "error"
    },
    {
      "inputs": [
        {
          "internalType": "address",
          "name": "sender",
          "type": "address"
        },
        {
          "internalType": "uint256",
          "name": "balance",
          "type": "uint256"
        },
        {
          "internalType": "uint256",
          "name": "needed",
          "type": "uint256"
        }
      ],
      "name": "ERC20InsufficientBalance",
      "type": "error"
    },
    {
      "inputs": [
        {
          "internalType": "address",
          "name": "approver",
          "type": "address"
        }
      ],
      "name": "ERC20InvalidApprover",
      "type": "error"
    },
    {
      "inputs": [
        {
          "internalType": "address",
          "name": "receiver",
          "type": "address"
        }
      ],
      "name": "ERC20InvalidReceiver",
      "type": "error"
    },
    {
      "inputs": [
        {
          "internalType": "address",
          "name": "sender",
          "type": "address"
        }
      ],
      "name": "ERC20InvalidSender",
      "type": "error"
    },
    {
      "inputs": [
        {
          "internalType": "address",
          "name": "spender",
          "type": "address"
        }
      ],
      "name": "ERC20InvalidSpender",
      "type": "error"
    },
    {
      "inputs": [],
      "name": "FailedRaise",
      "type": "error"
    },
    {
      "inputs": [],
      "name": "FundEarly",
      "type": "error"
    },
    {
      "inputs": [],
      "name": "NothingToClaim",
      "type": "error"
    },
    {
      "inputs": [
        {
          "internalType": "address",
          "name": "owner",
          "type": "address"
        }
      ],
      "name": "OwnableInvalidOwner",
      "type": "error"
    },
    {
      "inputs": [
        {
          "internalType": "address",
          "name": "account",
          "type": "address"
        }
      ],
      "name": "OwnableUnauthorizedAccount",
      "type": "error"
    },
    {
      "inputs": [],
      "name": "RefundNotAvailable",
      "type": "error"
    },
    {
      "inputs": [],
      "name": "TransferLock",
      "type": "error"
    },
    {
      "anonymous": false,
      "inputs": [
        {
          "indexed": true,
          "internalType": "address",
          "name": "owner",
          "type": "address"
        },
        {
          "indexed": true,
          "internalType": "address",
          "name": "spender",
          "type": "address"
        },
        {
          "indexed": false,
          "internalType": "uint256",
          "name": "value",
          "type": "uint256"
        }
      ],
      "name": "Approval",
      "type": "event"
    },
    {
      "anonymous": false,
      "inputs": [
        {
          "indexed": false,
          "internalType": "uint256",
          "name": "amount",
          "type": "uint256"
        }
      ],
      "name": "NewContribution",
      "type": "event"
    },
    {
      "anonymous": false,
      "inputs": [
        {
          "indexed": true,
          "internalType": "address",
          "name": "previousOwner",
          "type": "address"
        },
        {
          "indexed": true,
          "internalType": "address",
          "name": "newOwner",
          "type": "address"
        }
      ],
      "name": "OwnershipTransferred",
      "type": "event"
    },
    {
      "anonymous": false,
      "inputs": [
        {
          "indexed": true,
          "internalType": "address",
          "name": "from",
          "type": "address"
        },
        {
          "indexed": true,
          "internalType": "address",
          "name": "to",
          "type": "address"
        },
        {
          "indexed": false,
          "internalType": "uint256",
          "name": "value",
          "type": "uint256"
        }
      ],
      "name": "Transfer",
      "type": "event"
    },
    {
      "inputs": [
        {
          "internalType": "address",
          "name": "owner",
          "type": "address"
        },
        {
          "internalType": "address",
          "name": "spender",
          "type": "address"
        }
      ],
      "name": "allowance",
      "outputs": [
        {
          "internalType": "uint256",
          "name": "",
          "type": "uint256"
        }
      ],
      "stateMutability": "view",
      "type": "function"
    },
    {
      "inputs": [
        {
          "internalType": "address",
          "name": "spender",
          "type": "address"
        },
        {
          "internalType": "uint256",
          "name": "value",
          "type": "uint256"
        }
      ],
      "name": "approve",
      "outputs": [
        {
          "internalType": "bool",
          "name": "",
          "type": "bool"
        }
      ],
      "stateMutability": "nonpayable",
      "type": "function"
    },
    {
      "inputs": [
        {
          "internalType": "address",
          "name": "account",
          "type": "address"
        }
      ],
      "name": "balanceOf",
      "outputs": [
        {
          "internalType": "uint256",
          "name": "",
          "type": "uint256"
        }
      ],
      "stateMutability": "view",
      "type": "function"
    },
    {
      "inputs": [],
      "name": "claim",
      "outputs": [
        {
          "internalType": "uint256",
          "name": "claimedAmount",
          "type": "uint256"
        }
      ],
      "stateMutability": "nonpayable",
      "type": "function"
    },
    {
      "inputs": [
        {
          "internalType": "address",
          "name": "",
          "type": "address"
        }
      ],
      "name": "contributions",
      "outputs": [
        {
          "internalType": "uint256",
          "name": "",
          "type": "uint256"
        }
      ],
      "stateMutability": "view",
      "type": "function"
    },
    {
      "inputs": [],
      "name": "decimals",
      "outputs": [
        {
          "internalType": "uint8",
          "name": "",
          "type": "uint8"
        }
      ],
      "stateMutability": "view",
      "type": "function"
    },
    {
      "inputs": [],
      "name": "endTime",
      "outputs": [
        {
          "internalType": "uint256",
          "name": "",
          "type": "uint256"
        }
      ],
      "stateMutability": "view",
      "type": "function"
    },
    {
      "inputs": [],
      "name": "fund",
      "outputs": [],
      "stateMutability": "nonpayable",
      "type": "function"
    },
    {
      "inputs": [],
      "name": "fundingGoal",
      "outputs": [
        {
          "internalType": "uint256",
          "name": "",
          "type": "uint256"
        }
      ],
      "stateMutability": "view",
      "type": "function"
    },
    {
      "inputs": [],
      "name": "name",
      "outputs": [
        {
          "internalType": "string",
          "name": "",
          "type": "string"
        }
      ],
      "stateMutability": "view",
      "type": "function"
    },
    {
      "inputs": [],
      "name": "owner",
      "outputs": [
        {
          "internalType": "address",
          "name": "",
          "type": "address"
        }
      ],
      "stateMutability": "view",
      "type": "function"
    },
    {
      "inputs": [],
      "name": "renounceOwnership",
      "outputs": [],
      "stateMutability": "nonpayable",
      "type": "function"
    },
    {
      "inputs": [],
      "name": "symbol",
      "outputs": [
        {
          "internalType": "string",
          "name": "",
          "type": "string"
        }
      ],
      "stateMutability": "view",
      "type": "function"
    },
    {
      "inputs": [],
      "name": "tokenomics",
      "outputs": [
        {
          "internalType": "uint256",
          "name": "team",
          "type": "uint256"
        },
        {
          "internalType": "uint256",
          "name": "liquidity",
          "type": "uint256"
        },
        {
          "internalType": "uint256",
          "name": "marketing",
          "type": "uint256"
        },
        {
          "internalType": "uint256",
          "name": "investors",
          "type": "uint256"
        },
        {
          "internalType": "uint256",
          "name": "crowdFund",
          "type": "uint256"
        }
      ],
      "stateMutability": "view",
      "type": "function"
    },
    {
      "inputs": [],
      "name": "totalSupply",
      "outputs": [
        {
          "internalType": "uint256",
          "name": "",
          "type": "uint256"
        }
      ],
      "stateMutability": "view",
      "type": "function"
    },
    {
      "inputs": [
        {
          "internalType": "address",
          "name": "to",
          "type": "address"
        },
        {
          "internalType": "uint256",
          "name": "value",
          "type": "uint256"
        }
      ],
      "name": "transfer",
      "outputs": [
        {
          "internalType": "bool",
          "name": "",
          "type": "bool"
        }
      ],
      "stateMutability": "nonpayable",
      "type": "function"
    },
    {
      "inputs": [
        {
          "internalType": "address",
          "name": "from",
          "type": "address"
        },
        {
          "internalType": "address",
          "name": "to",
          "type": "address"
        },
        {
          "internalType": "uint256",
          "name": "value",
          "type": "uint256"
        }
      ],
      "name": "transferFrom",
      "outputs": [
        {
          "internalType": "bool",
          "name": "",
          "type": "bool"
        }
      ],
      "stateMutability": "nonpayable",
      "type": "function"
    },
    {
      "inputs": [
        {
          "internalType": "address",
          "name": "newOwner",
          "type": "address"
        }
      ],
      "name": "transferOwnership",
      "outputs": [],
      "stateMutability": "nonpayable",
      "type": "function"
    },
    {
      "stateMutability": "payable",
      "type": "receive"
    }
  ],
  "bytecode": {
    "object": "0x60806040523480156200001157600080fd5b50604051620012cb380380620012cb8339810160408190526200003491620003a3565b336040518060400160405280600781526020016626bcaa37b5b2b760c91b8152506040518060400160405280600481526020016326aa25a760e11b8152508160039081620000839190620004cb565b506004620000928282620004cb565b5050506001600160a01b038116620000c557604051631e4fbdf760e01b8152600060048201526024015b60405180910390fd5b620000d08162000160565b5060068390556007829055805160098190556020820151600a556040820151600b556060820151600c556080820151600d556200011090600190620001b2565b600a5462000120903090620001b2565b600b546200013190600390620001b2565b600c546200014290600490620001b2565b600d54600881905562000157903090620001b2565b505050620005bf565b600580546001600160a01b038381166001600160a01b0319831681179093556040519116919082907f8be0079c531659141344cd1fd0a4f28419497f9722a3daafe3b4186f6b6457e090600090a35050565b6001600160a01b038216620001de5760405163ec442f0560e01b815260006004820152602401620000bc565b620001ec60008383620001f0565b5050565b6001600160a01b038316158015906200021257506001600160a01b0383163014155b8015620002295750600554600160a01b900460ff16155b156200024857604051638574646f60e01b815260040160405180910390fd5b620002558383836200025a565b505050565b6001600160a01b038316620002895780600260008282546200027d919062000597565b90915550620002fd9050565b6001600160a01b03831660009081526020819052604090205481811015620002de5760405163391434e360e21b81526001600160a01b03851660048201526024810182905260448101839052606401620000bc565b6001600160a01b03841660009081526020819052604090209082900390555b6001600160a01b0382166200031b576002805482900390556200033a565b6001600160a01b03821660009081526020819052604090208054820190555b816001600160a01b0316836001600160a01b03167fddf252ad1be2c89b69c2b068fc378daa952ba7f163c4a11628f55a4df523b3ef836040516200038091815260200190565b60405180910390a3505050565b634e487b7160e01b600052604160045260246000fd5b600080600083850360e0811215620003ba57600080fd5b845193506020850151925060a0603f1982011215620003d857600080fd5b5060405160a081016001600160401b0381118282101715620003fe57620003fe6200038d565b806040525060408501518152606085015160208201526080850151604082015260a0850151606082015260c08501516080820152809150509250925092565b600181811c908216806200045257607f821691505b6020821081036200047357634e487b7160e01b600052602260045260246000fd5b50919050565b601f8211156200025557600081815260208120601f850160051c81016020861015620004a25750805b601f850160051c820191505b81811015620004c357828155600101620004ae565b505050505050565b81516001600160401b03811115620004e757620004e76200038d565b620004ff81620004f884546200043d565b8462000479565b602080601f8311600181146200053757600084156200051e5750858301515b600019600386901b1c1916600185901b178555620004c3565b600085815260208120601f198616915b82811015620005685788860151825594840194600190910190840162000547565b5085821015620005875787850151600019600388901b60f8161c191681555b5050505050600190811b01905550565b80820180821115620005b957634e487b7160e01b600052601160045260246000fd5b92915050565b610cfc80620005cf6000396000f3fe60806040526004361061010d5760003560e01c806370a082311161009557806395d89b411161006457806395d89b41146103a2578063a9059cbb146103b7578063b60d4288146103d7578063dd62ed3e146103ec578063f2fde38b1461043257600080fd5b806370a0823114610319578063715018a61461034f5780637a3a0e84146103645780638da5cb5b1461037a57600080fd5b8063313ce567116100dc578063313ce567146102565780633197cbb61461027257806342e94c90146102885780634ac7251d146102b55780634e71d92d1461030457600080fd5b806306fdde03146101bc578063095ea7b3146101e757806318160ddd1461021757806323b872dd1461023657600080fd5b366101b757600654421061013457604051632901a0f960e11b815260040160405180910390fd5b34156101b557346008600082825461014c9190610b41565b9091555061015d9050303334610452565b336000908152600e60205260408120805434929061017c908490610b54565b90915550506040513481527f204a45af38383bc021c2160f480e153afb121c4ab872ab66eaeaecf2183dce8e9060200160405180910390a15b005b600080fd5b3480156101c857600080fd5b506101d16104bb565b6040516101de9190610b67565b60405180910390f35b3480156101f357600080fd5b50610207610202366004610bd1565b61054d565b60405190151581526020016101de565b34801561022357600080fd5b506002545b6040519081526020016101de565b34801561024257600080fd5b50610207610251366004610bfb565b610567565b34801561026257600080fd5b50604051601281526020016101de565b34801561027e57600080fd5b5061022860065481565b34801561029457600080fd5b506102286102a3366004610c37565b600e6020526000908152604090205481565b3480156102c157600080fd5b50600954600a54600b54600c54600d546102dc949392919085565b604080519586526020860194909452928401919091526060830152608082015260a0016101de565b34801561031057600080fd5b5061022861058b565b34801561032557600080fd5b50610228610334366004610c37565b6001600160a01b031660009081526020819052604090205490565b34801561035b57600080fd5b506101b561067b565b34801561037057600080fd5b5061022860075481565b34801561038657600080fd5b506005546040516001600160a01b0390911681526020016101de565b3480156103ae57600080fd5b506101d161068f565b3480156103c357600080fd5b506102076103d2366004610bd1565b61069e565b3480156103e357600080fd5b506101b56106ac565b3480156103f857600080fd5b50610228610407366004610c59565b6001600160a01b03918216600090815260016020908152604080832093909416825291909152205490565b34801561043e57600080fd5b506101b561044d366004610c37565b610784565b6001600160a01b03831661048157604051634b637e8f60e11b8152600060048201526024015b60405180910390fd5b6001600160a01b0382166104ab5760405163ec442f0560e01b815260006004820152602401610478565b6104b68383836107c2565b505050565b6060600380546104ca90610c8c565b80601f01602080910402602001604051908101604052809291908181526020018280546104f690610c8c565b80156105435780601f1061051857610100808354040283529160200191610543565b820191906000526020600020905b81548152906001019060200180831161052657829003601f168201915b5050505050905090565b60003361055b818585610822565b60019150505b92915050565b60003361057585828561082f565b610580858585610452565b506001949350505050565b336000908152600e602052604081208054919055600554600160a01b900460ff16156105ca57604051632901a0f960e11b815260040160405180910390fd5b6006544210156105ed57604051630b4d698160e01b815260040160405180910390fd5b600754471061060f57604051630b4d698160e01b815260040160405180910390fd5b80600003610630576040516312d37ee560e31b815260040160405180910390fd5b60405133908290600081818185875af1925050503d8060008114610670576040519150601f19603f3d011682016040523d82523d6000602084013e610675565b606091505b50505090565b6106836108ad565b61068d60006108da565b565b6060600480546104ca90610c8c565b60003361055b818585610452565b6106b46108ad565b600554600160a01b900460ff16156106df57604051632901a0f960e11b815260040160405180910390fd5b60065442101561070257604051635971361360e11b815260040160405180910390fd5b6007544710156107255760405163ecb0e82d60e01b815260040160405180910390fd5b6005805460ff60a01b198116600160a01b179091556040516001600160a01b03909116904790600081818185875af1925050503d80600081146104b6576040519150601f19603f3d011682016040523d82523d6000602084013e505050565b61078c6108ad565b6001600160a01b0381166107b657604051631e4fbdf760e01b815260006004820152602401610478565b6107bf816108da565b50565b6001600160a01b038316158015906107e357506001600160a01b0383163014155b80156107f95750600554600160a01b900460ff16155b1561081757604051638574646f60e01b815260040160405180910390fd5b6104b683838361092c565b6104b68383836001610a56565b6001600160a01b0383811660009081526001602090815260408083209386168352929052205460001981146108a7578181101561089857604051637dc7a0d960e11b81526001600160a01b03841660048201526024810182905260448101839052606401610478565b6108a784848484036000610a56565b50505050565b6005546001600160a01b0316331461068d5760405163118cdaa760e01b8152336004820152602401610478565b600580546001600160a01b038381166001600160a01b0319831681179093556040519116919082907f8be0079c531659141344cd1fd0a4f28419497f9722a3daafe3b4186f6b6457e090600090a35050565b6001600160a01b03831661095757806002600082825461094c9190610b54565b909155506109c99050565b6001600160a01b038316600090815260208190526040902054818110156109aa5760405163391434e360e21b81526001600160a01b03851660048201526024810182905260448101839052606401610478565b6001600160a01b03841660009081526020819052604090209082900390555b6001600160a01b0382166109e557600280548290039055610a04565b6001600160a01b03821660009081526020819052604090208054820190555b816001600160a01b0316836001600160a01b03167fddf252ad1be2c89b69c2b068fc378daa952ba7f163c4a11628f55a4df523b3ef83604051610a4991815260200190565b60405180910390a3505050565b6001600160a01b038416610a805760405163e602df0560e01b815260006004820152602401610478565b6001600160a01b038316610aaa57604051634a1406b160e11b815260006004820152602401610478565b6001600160a01b03808516600090815260016020908152604080832093871683529290522082905580156108a757826001600160a01b0316846001600160a01b03167f8c5be1e5ebec7d5bd14f71427d1e84f3dd0314c0f7b2291e5b200ac8c7c3b92584604051610b1d91815260200190565b60405180910390a350505050565b634e487b7160e01b600052601160045260246000fd5b8181038181111561056157610561610b2b565b8082018082111561056157610561610b2b565b600060208083528351808285015260005b81811015610b9457858101830151858201604001528201610b78565b506000604082860101526040601f19601f8301168501019250505092915050565b80356001600160a01b0381168114610bcc57600080fd5b919050565b60008060408385031215610be457600080fd5b610bed83610bb5565b946020939093013593505050565b600080600060608486031215610c1057600080fd5b610c1984610bb5565b9250610c2760208501610bb5565b9150604084013590509250925092565b600060208284031215610c4957600080fd5b610c5282610bb5565b9392505050565b60008060408385031215610c6c57600080fd5b610c7583610bb5565b9150610c8360208401610bb5565b90509250929050565b600181811c90821680610ca057607f821691505b602082108103610cc057634e487b7160e01b600052602260045260246000fd5b5091905056fea2646970667358221220ed1cf808728f4d23bb455bb6a86145550ef0cbf437923b1375b0f2d344d82ffe64736f6c63430008150033",
    "linkReferences": {}
  },
  "methodIdentifiers": {
    "allowance(address,address)": "dd62ed3e",
    "approve(address,uint256)": "095ea7b3",
    "balanceOf(address)": "70a08231",
    "claim()": "4e71d92d",
    "contributions(address)": "42e94c90",
    "decimals()": "313ce567",
    "endTime()": "3197cbb6",
    "fund()": "b60d4288",
    "fundingGoal()": "7a3a0e84",
    "name()": "06fdde03",
    "owner()": "8da5cb5b",
    "renounceOwnership()": "715018a6",
    "symbol()": "95d89b41",
    "tokenomics()": "4ac7251d",
    "totalSupply()": "18160ddd",
    "transfer(address,uint256)": "a9059cbb",
    "transferFrom(address,address,uint256)": "23b872dd",
    "transferOwnership(address)": "f2fde38b"
  },
  "id": 0
}