{
  "address": "0x2279B7A0a67DB372996a5FaB50D91eAA73d2eBe6",
  "abi": [
    {
      "inputs": [
        {
          "internalType": "uint256",
          "name": "_endTime",
          "type": "uint256"
        },
        {
          "internalType": "uint256",
          "name": "_fundingGoal",
          "type": "uint256"
        },
        {
          "components": [
            {
              "internalType": "uint256",
              "name": "team",
              "type": "uint256"
            },
            {
              "internalType": "uint256",
              "name": "liquidity",
              "type": "uint256"
            },
            {
              "internalType": "uint256",
              "name": "marketing",
              "type": "uint256"
            },
            {
              "internalType": "uint256",
              "name": "investors",
              "type": "uint256"
            },
            {
              "internalType": "uint256",
              "name": "crowdFund",
              "type": "uint256"
            }
          ],
          "internalType": "struct Tokenomics",
          "name": "_tokenomics",
          "type": "tuple"
        }
      ],
      "stateMutability": "nonpayable",
      "type": "constructor"
    },
    {
      "inputs": [],
      "name": "AlreadyComplete",
      "type": "error"
    },
    {
      "inputs": [
        {
          "internalType": "address",
          "name": "spender",
          "type": "address"
        },
        {
          "internalType": "uint256",
          "name": "allowance",
          "type": "uint256"
        },
        {
          "internalType": "uint256",
          "name": "needed",
          "type": "uint256"
        }
      ],
      "name": "ERC20InsufficientAllowance",
      "type": "error"
    },
    {
      "inputs": [
        {
          "internalType": "address",
          "name": "sender",
          "type": "address"
        },
        {
          "internalType": "uint256",
          "name": "balance",
          "type": "uint256"
        },
        {
          "internalType": "uint256",
          "name": "needed",
          "type": "uint256"
        }
      ],
      "name": "ERC20InsufficientBalance",
      "type": "error"
    },
    {
      "inputs": [
        {
          "internalType": "address",
          "name": "approver",
          "type": "address"
        }
      ],
      "name": "ERC20InvalidApprover",
      "type": "error"
    },
    {
      "inputs": [
        {
          "internalType": "address",
          "name": "receiver",
          "type": "address"
        }
      ],
      "name": "ERC20InvalidReceiver",
      "type": "error"
    },
    {
      "inputs": [
        {
          "internalType": "address",
          "name": "sender",
          "type": "address"
        }
      ],
      "name": "ERC20InvalidSender",
      "type": "error"
    },
    {
      "inputs": [
        {
          "internalType": "address",
          "name": "spender",
          "type": "address"
        }
      ],
      "name": "ERC20InvalidSpender",
      "type": "error"
    },
    {
      "inputs": [],
      "name": "FailedRaise",
      "type": "error"
    },
    {
      "inputs": [],
      "name": "FundEarly",
      "type": "error"
    },
    {
      "inputs": [],
      "name": "NothingToClaim",
      "type": "error"
    },
    {
      "inputs": [
        {
          "internalType": "address",
          "name": "owner",
          "type": "address"
        }
      ],
      "name": "OwnableInvalidOwner",
      "type": "error"
    },
    {
      "inputs": [
        {
          "internalType": "address",
          "name": "account",
          "type": "address"
        }
      ],
      "name": "OwnableUnauthorizedAccount",
      "type": "error"
    },
    {
      "inputs": [],
      "name": "RefundNotAvailable",
      "type": "error"
    },
    {
      "inputs": [],
      "name": "TransferLock",
      "type": "error"
    },
    {
      "anonymous": false,
      "inputs": [
        {
          "indexed": true,
          "internalType": "address",
          "name": "owner",
          "type": "address"
        },
        {
          "indexed": true,
          "internalType": "address",
          "name": "spender",
          "type": "address"
        },
        {
          "indexed": false,
          "internalType": "uint256",
          "name": "value",
          "type": "uint256"
        }
      ],
      "name": "Approval",
      "type": "event"
    },
    {
      "anonymous": false,
      "inputs": [
        {
          "indexed": false,
          "internalType": "uint256",
          "name": "amount",
          "type": "uint256"
        }
      ],
      "name": "NewContribution",
      "type": "event"
    },
    {
      "anonymous": false,
      "inputs": [
        {
          "indexed": true,
          "internalType": "address",
          "name": "previousOwner",
          "type": "address"
        },
        {
          "indexed": true,
          "internalType": "address",
          "name": "newOwner",
          "type": "address"
        }
      ],
      "name": "OwnershipTransferred",
      "type": "event"
    },
    {
      "anonymous": false,
      "inputs": [
        {
          "indexed": true,
          "internalType": "address",
          "name": "from",
          "type": "address"
        },
        {
          "indexed": true,
          "internalType": "address",
          "name": "to",
          "type": "address"
        },
        {
          "indexed": false,
          "internalType": "uint256",
          "name": "value",
          "type": "uint256"
        }
      ],
      "name": "Transfer",
      "type": "event"
    },
    {
      "inputs": [
        {
          "internalType": "address",
          "name": "owner",
          "type": "address"
        },
        {
          "internalType": "address",
          "name": "spender",
          "type": "address"
        }
      ],
      "name": "allowance",
      "outputs": [
        {
          "internalType": "uint256",
          "name": "",
          "type": "uint256"
        }
      ],
      "stateMutability": "view",
      "type": "function"
    },
    {
      "inputs": [
        {
          "internalType": "address",
          "name": "spender",
          "type": "address"
        },
        {
          "internalType": "uint256",
          "name": "value",
          "type": "uint256"
        }
      ],
      "name": "approve",
      "outputs": [
        {
          "internalType": "bool",
          "name": "",
          "type": "bool"
        }
      ],
      "stateMutability": "nonpayable",
      "type": "function"
    },
    {
      "inputs": [
        {
          "internalType": "address",
          "name": "account",
          "type": "address"
        }
      ],
      "name": "balanceOf",
      "outputs": [
        {
          "internalType": "uint256",
          "name": "",
          "type": "uint256"
        }
      ],
      "stateMutability": "view",
      "type": "function"
    },
    {
      "inputs": [],
      "name": "claim",
      "outputs": [
        {
          "internalType": "uint256",
          "name": "claimedAmount",
          "type": "uint256"
        }
      ],
      "stateMutability": "nonpayable",
      "type": "function"
    },
    {
      "inputs": [
        {
          "internalType": "address",
          "name": "",
          "type": "address"
        }
      ],
      "name": "contributions",
      "outputs": [
        {
          "internalType": "uint256",
          "name": "",
          "type": "uint256"
        }
      ],
      "stateMutability": "view",
      "type": "function"
    },
    {
      "inputs": [],
      "name": "decimals",
      "outputs": [
        {
          "internalType": "uint8",
          "name": "",
          "type": "uint8"
        }
      ],
      "stateMutability": "view",
      "type": "function"
    },
    {
      "inputs": [],
      "name": "endTime",
      "outputs": [
        {
          "internalType": "uint256",
          "name": "",
          "type": "uint256"
        }
      ],
      "stateMutability": "view",
      "type": "function"
    },
    {
      "inputs": [],
      "name": "fund",
      "outputs": [],
      "stateMutability": "nonpayable",
      "type": "function"
    },
    {
      "inputs": [],
      "name": "fundingGoal",
      "outputs": [
        {
          "internalType": "uint256",
          "name": "",
          "type": "uint256"
        }
      ],
      "stateMutability": "view",
      "type": "function"
    },
    {
      "inputs": [],
      "name": "getStruct",
      "outputs": [
        {
          "components": [
            {
              "internalType": "uint256",
              "name": "team",
              "type": "uint256"
            },
            {
              "internalType": "uint256",
              "name": "liquidity",
              "type": "uint256"
            },
            {
              "internalType": "uint256",
              "name": "marketing",
              "type": "uint256"
            },
            {
              "internalType": "uint256",
              "name": "investors",
              "type": "uint256"
            },
            {
              "internalType": "uint256",
              "name": "crowdFund",
              "type": "uint256"
            }
          ],
          "internalType": "struct Tokenomics",
          "name": "",
          "type": "tuple"
        }
      ],
      "stateMutability": "view",
      "type": "function"
    },
    {
      "inputs": [],
      "name": "name",
      "outputs": [
        {
          "internalType": "string",
          "name": "",
          "type": "string"
        }
      ],
      "stateMutability": "view",
      "type": "function"
    },
    {
      "inputs": [],
      "name": "owner",
      "outputs": [
        {
          "internalType": "address",
          "name": "",
          "type": "address"
        }
      ],
      "stateMutability": "view",
      "type": "function"
    },
    {
      "inputs": [],
      "name": "renounceOwnership",
      "outputs": [],
      "stateMutability": "nonpayable",
      "type": "function"
    },
    {
      "inputs": [],
      "name": "symbol",
      "outputs": [
        {
          "internalType": "string",
          "name": "",
          "type": "string"
        }
      ],
      "stateMutability": "view",
      "type": "function"
    },
    {
      "inputs": [],
      "name": "tokenomics",
      "outputs": [
        {
          "internalType": "uint256",
          "name": "team",
          "type": "uint256"
        },
        {
          "internalType": "uint256",
          "name": "liquidity",
          "type": "uint256"
        },
        {
          "internalType": "uint256",
          "name": "marketing",
          "type": "uint256"
        },
        {
          "internalType": "uint256",
          "name": "investors",
          "type": "uint256"
        },
        {
          "internalType": "uint256",
          "name": "crowdFund",
          "type": "uint256"
        }
      ],
      "stateMutability": "view",
      "type": "function"
    },
    {
      "inputs": [],
      "name": "totalSupply",
      "outputs": [
        {
          "internalType": "uint256",
          "name": "",
          "type": "uint256"
        }
      ],
      "stateMutability": "view",
      "type": "function"
    },
    {
      "inputs": [
        {
          "internalType": "address",
          "name": "to",
          "type": "address"
        },
        {
          "internalType": "uint256",
          "name": "value",
          "type": "uint256"
        }
      ],
      "name": "transfer",
      "outputs": [
        {
          "internalType": "bool",
          "name": "",
          "type": "bool"
        }
      ],
      "stateMutability": "nonpayable",
      "type": "function"
    },
    {
      "inputs": [
        {
          "internalType": "address",
          "name": "from",
          "type": "address"
        },
        {
          "internalType": "address",
          "name": "to",
          "type": "address"
        },
        {
          "internalType": "uint256",
          "name": "value",
          "type": "uint256"
        }
      ],
      "name": "transferFrom",
      "outputs": [
        {
          "internalType": "bool",
          "name": "",
          "type": "bool"
        }
      ],
      "stateMutability": "nonpayable",
      "type": "function"
    },
    {
      "inputs": [
        {
          "internalType": "address",
          "name": "newOwner",
          "type": "address"
        }
      ],
      "name": "transferOwnership",
      "outputs": [],
      "stateMutability": "nonpayable",
      "type": "function"
    },
    {
      "stateMutability": "payable",
      "type": "receive"
    }
  ],
  "transactionHash": "0x2188cd4bd41dd5aff9862b54b6f57fbbc84d31a160d8e5af0581b8879f390ad2",
  "args": [
    1700620682,
    "1000000000000000000",
    {
      "team": "1000000000000000000",
      "liquidity": "4000000000000000000",
      "marketing": "2000000000000000000",
      "investors": "2000000000000000000",
      "crowdFund": "1000000000000000000"
    }
  ],
  "numDeployments": 4,
  "solcInputHash": "891dd28db102e2811efe75f5520e59c0",
  "bytecode": "0x60806040523480156200001157600080fd5b50604051620026e5380380620026e58339818101604052810190620000379190620007f8565b336040518060400160405280600781526020017f4d79546f6b656e000000000000000000000000000000000000000000000000008152506040518060400160405280600481526020017f4d544b4e000000000000000000000000000000000000000000000000000000008152508160039081620000b5919062000a95565b508060049081620000c7919062000a95565b505050600073ffffffffffffffffffffffffffffffffffffffff168173ffffffffffffffffffffffffffffffffffffffff16036200013f5760006040517f1e4fbdf700000000000000000000000000000000000000000000000000000000815260040162000136919062000bc1565b60405180910390fd5b62000150816200022260201b60201c565b5082600681905550816007819055508060096000820151816000015560208201518160010155604082015181600201556060820151816003015560808201518160040155905050620001af6001600960000154620002e860201b60201c565b620001c630600960010154620002e860201b60201c565b620001de6003600960020154620002e860201b60201c565b620001f66004600960030154620002e860201b60201c565b6009600401546008819055506200021930600960040154620002e860201b60201c565b50505062000cb3565b6000600560009054906101000a900473ffffffffffffffffffffffffffffffffffffffff16905081600560006101000a81548173ffffffffffffffffffffffffffffffffffffffff021916908373ffffffffffffffffffffffffffffffffffffffff1602179055508173ffffffffffffffffffffffffffffffffffffffff168173ffffffffffffffffffffffffffffffffffffffff167f8be0079c531659141344cd1fd0a4f28419497f9722a3daafe3b4186f6b6457e060405160405180910390a35050565b600073ffffffffffffffffffffffffffffffffffffffff168273ffffffffffffffffffffffffffffffffffffffff16036200035d5760006040517fec442f0500000000000000000000000000000000000000000000000000000000815260040162000354919062000bc1565b60405180910390fd5b62000371600083836200037560201b60201c565b5050565b600073ffffffffffffffffffffffffffffffffffffffff168373ffffffffffffffffffffffffffffffffffffffff1614158015620003df57503073ffffffffffffffffffffffffffffffffffffffff168373ffffffffffffffffffffffffffffffffffffffff1614155b8015620003f95750600560149054906101000a900460ff16155b1562000431576040517f8574646f00000000000000000000000000000000000000000000000000000000815260040160405180910390fd5b620004448383836200044960201b60201c565b505050565b600073ffffffffffffffffffffffffffffffffffffffff168373ffffffffffffffffffffffffffffffffffffffff16036200049f57806002600082825462000492919062000c0d565b9250508190555062000575565b60008060008573ffffffffffffffffffffffffffffffffffffffff1673ffffffffffffffffffffffffffffffffffffffff168152602001908152602001600020549050818110156200052e578381836040517fe450d38c000000000000000000000000000000000000000000000000000000008152600401620005259392919062000c59565b60405180910390fd5b8181036000808673ffffffffffffffffffffffffffffffffffffffff1673ffffffffffffffffffffffffffffffffffffffff16815260200190815260200160002081905550505b600073ffffffffffffffffffffffffffffffffffffffff168273ffffffffffffffffffffffffffffffffffffffff1603620005c057806002600082825403925050819055506200060d565b806000808473ffffffffffffffffffffffffffffffffffffffff1673ffffffffffffffffffffffffffffffffffffffff168152602001908152602001600020600082825401925050819055505b8173ffffffffffffffffffffffffffffffffffffffff168373ffffffffffffffffffffffffffffffffffffffff167fddf252ad1be2c89b69c2b068fc378daa952ba7f163c4a11628f55a4df523b3ef836040516200066c919062000c96565b60405180910390a3505050565b6000604051905090565b600080fd5b6000819050919050565b6200069d8162000688565b8114620006a957600080fd5b50565b600081519050620006bd8162000692565b92915050565b600080fd5b6000601f19601f8301169050919050565b7f4e487b7100000000000000000000000000000000000000000000000000000000600052604160045260246000fd5b6200071382620006c8565b810181811067ffffffffffffffff82111715620007355762000734620006d9565b5b80604052505050565b60006200074a62000679565b905062000758828262000708565b919050565b600060a08284031215620007765762000775620006c3565b5b6200078260a06200073e565b905060006200079484828501620006ac565b6000830152506020620007aa84828501620006ac565b6020830152506040620007c084828501620006ac565b6040830152506060620007d684828501620006ac565b6060830152506080620007ec84828501620006ac565b60808301525092915050565b600080600060e0848603121562000814576200081362000683565b5b60006200082486828701620006ac565b93505060206200083786828701620006ac565b92505060406200084a868287016200075d565b9150509250925092565b600081519050919050565b7f4e487b7100000000000000000000000000000000000000000000000000000000600052602260045260246000fd5b60006002820490506001821680620008a757607f821691505b602082108103620008bd57620008bc6200085f565b5b50919050565b60008190508160005260206000209050919050565b60006020601f8301049050919050565b600082821b905092915050565b600060088302620009277fffffffffffffffffffffffffffffffffffffffffffffffffffffffffffffffff82620008e8565b620009338683620008e8565b95508019841693508086168417925050509392505050565b6000819050919050565b600062000976620009706200096a8462000688565b6200094b565b62000688565b9050919050565b6000819050919050565b620009928362000955565b620009aa620009a1826200097d565b848454620008f5565b825550505050565b600090565b620009c1620009b2565b620009ce81848462000987565b505050565b5b81811015620009f657620009ea600082620009b7565b600181019050620009d4565b5050565b601f82111562000a455762000a0f81620008c3565b62000a1a84620008d8565b8101602085101562000a2a578190505b62000a4262000a3985620008d8565b830182620009d3565b50505b505050565b600082821c905092915050565b600062000a6a6000198460080262000a4a565b1980831691505092915050565b600062000a85838362000a57565b9150826002028217905092915050565b62000aa08262000854565b67ffffffffffffffff81111562000abc5762000abb620006d9565b5b62000ac882546200088e565b62000ad5828285620009fa565b600060209050601f83116001811462000b0d576000841562000af8578287015190505b62000b04858262000a77565b86555062000b74565b601f19841662000b1d86620008c3565b60005b8281101562000b475784890151825560018201915060208501945060208101905062000b20565b8683101562000b67578489015162000b63601f89168262000a57565b8355505b6001600288020188555050505b505050505050565b600073ffffffffffffffffffffffffffffffffffffffff82169050919050565b600062000ba98262000b7c565b9050919050565b62000bbb8162000b9c565b82525050565b600060208201905062000bd8600083018462000bb0565b92915050565b7f4e487b7100000000000000000000000000000000000000000000000000000000600052601160045260246000fd5b600062000c1a8262000688565b915062000c278362000688565b925082820190508082111562000c425762000c4162000bde565b5b92915050565b62000c538162000688565b82525050565b600060608201905062000c70600083018662000bb0565b62000c7f602083018562000c48565b62000c8e604083018462000c48565b949350505050565b600060208201905062000cad600083018462000c48565b92915050565b611a228062000cc36000396000f3fe6080604052600436106101185760003560e01c80634e71d92d116100a057806395d89b411161006457806395d89b41146104ab578063a9059cbb146104d6578063b60d428814610513578063dd62ed3e1461052a578063f2fde38b1461056757610214565b80634e71d92d146103d657806370a0823114610401578063715018a61461043e5780637a3a0e84146104555780638da5cb5b1461048057610214565b806323b872dd116100e757806323b872dd146102d7578063313ce567146103145780633197cbb61461033f57806342e94c901461036a5780634ac7251d146103a757610214565b806306fdde0314610219578063095ea7b31461024457806309b1b3f21461028157806318160ddd146102ac57610214565b36610214576006544210610158576040517f520341f200000000000000000000000000000000000000000000000000000000815260040160405180910390fd5b6000341461021257346008600082825461017291906114c0565b92505081905550610184303334610590565b34600e60003373ffffffffffffffffffffffffffffffffffffffff1673ffffffffffffffffffffffffffffffffffffffff16815260200190815260200160002060008282546101d391906114f4565b925050819055507f204a45af38383bc021c2160f480e153afb121c4ab872ab66eaeaecf2183dce8e346040516102099190611537565b60405180910390a15b005b600080fd5b34801561022557600080fd5b5061022e610684565b60405161023b91906115e2565b60405180910390f35b34801561025057600080fd5b5061026b60048036038101906102669190611693565b610716565b60405161027891906116ee565b60405180910390f35b34801561028d57600080fd5b50610296610739565b6040516102a39190611780565b60405180910390f35b3480156102b857600080fd5b506102c1610785565b6040516102ce9190611537565b60405180910390f35b3480156102e357600080fd5b506102fe60048036038101906102f9919061179b565b61078f565b60405161030b91906116ee565b60405180910390f35b34801561032057600080fd5b506103296107be565b604051610336919061180a565b60405180910390f35b34801561034b57600080fd5b506103546107c7565b6040516103619190611537565b60405180910390f35b34801561037657600080fd5b50610391600480360381019061038c9190611825565b6107cd565b60405161039e9190611537565b60405180910390f35b3480156103b357600080fd5b506103bc6107e5565b6040516103cd959493929190611852565b60405180910390f35b3480156103e257600080fd5b506103eb610809565b6040516103f89190611537565b60405180910390f35b34801561040d57600080fd5b5061042860048036038101906104239190611825565b6109f6565b6040516104359190611537565b60405180910390f35b34801561044a57600080fd5b50610453610a3e565b005b34801561046157600080fd5b5061046a610a52565b6040516104779190611537565b60405180910390f35b34801561048c57600080fd5b50610495610a58565b6040516104a291906118b4565b60405180910390f35b3480156104b757600080fd5b506104c0610a82565b6040516104cd91906115e2565b60405180910390f35b3480156104e257600080fd5b506104fd60048036038101906104f89190611693565b610b14565b60405161050a91906116ee565b60405180910390f35b34801561051f57600080fd5b50610528610b37565b005b34801561053657600080fd5b50610551600480360381019061054c91906118cf565b610c8b565b60405161055e9190611537565b60405180910390f35b34801561057357600080fd5b5061058e60048036038101906105899190611825565b610d12565b005b600073ffffffffffffffffffffffffffffffffffffffff168373ffffffffffffffffffffffffffffffffffffffff16036106025760006040517f96c6fd1e0000000000000000000000000000000000000000000000000000000081526004016105f991906118b4565b60405180910390fd5b600073ffffffffffffffffffffffffffffffffffffffff168273ffffffffffffffffffffffffffffffffffffffff16036106745760006040517fec442f0500000000000000000000000000000000000000000000000000000000815260040161066b91906118b4565b60405180910390fd5b61067f838383610d98565b505050565b6060600380546106939061193e565b80601f01602080910402602001604051908101604052809291908181526020018280546106bf9061193e565b801561070c5780601f106106e15761010080835404028352916020019161070c565b820191906000526020600020905b8154815290600101906020018083116106ef57829003601f168201915b5050505050905090565b600080610721610e61565b905061072e818585610e69565b600191505092915050565b610741611458565b60096040518060a001604052908160008201548152602001600182015481526020016002820154815260200160038201548152602001600482015481525050905090565b6000600254905090565b60008061079a610e61565b90506107a7858285610e7b565b6107b2858585610590565b60019150509392505050565b60006012905090565b60065481565b600e6020528060005260406000206000915090505481565b60098060000154908060010154908060020154908060030154908060040154905085565b6000600e60003373ffffffffffffffffffffffffffffffffffffffff1673ffffffffffffffffffffffffffffffffffffffff1681526020019081526020016000205490506000600e60003373ffffffffffffffffffffffffffffffffffffffff1673ffffffffffffffffffffffffffffffffffffffff16815260200190815260200160002081905550600560149054906101000a900460ff16156108d9576040517f520341f200000000000000000000000000000000000000000000000000000000815260040160405180910390fd5b600654421015610915576040517f0b4d698100000000000000000000000000000000000000000000000000000000815260040160405180910390fd5b6007544710610950576040517f0b4d698100000000000000000000000000000000000000000000000000000000815260040160405180910390fd5b6000810361098a576040517f969bf72800000000000000000000000000000000000000000000000000000000815260040160405180910390fd5b3373ffffffffffffffffffffffffffffffffffffffff16816040516109ae906119a0565b60006040518083038185875af1925050503d80600081146109eb576040519150601f19603f3d011682016040523d82523d6000602084013e6109f0565b606091505b50505090565b60008060008373ffffffffffffffffffffffffffffffffffffffff1673ffffffffffffffffffffffffffffffffffffffff168152602001908152602001600020549050919050565b610a46610f0f565b610a506000610f96565b565b60075481565b6000600560009054906101000a900473ffffffffffffffffffffffffffffffffffffffff16905090565b606060048054610a919061193e565b80601f0160208091040260200160405190810160405280929190818152602001828054610abd9061193e565b8015610b0a5780601f10610adf57610100808354040283529160200191610b0a565b820191906000526020600020905b815481529060010190602001808311610aed57829003601f168201915b5050505050905090565b600080610b1f610e61565b9050610b2c818585610590565b600191505092915050565b610b3f610f0f565b600560149054906101000a900460ff1615610b86576040517f520341f200000000000000000000000000000000000000000000000000000000815260040160405180910390fd5b600654421015610bc2576040517fb2e26c2600000000000000000000000000000000000000000000000000000000815260040160405180910390fd5b600754471015610bfe576040517fecb0e82d00000000000000000000000000000000000000000000000000000000815260040160405180910390fd5b6001600560146101000a81548160ff021916908315150217905550610c21610a58565b73ffffffffffffffffffffffffffffffffffffffff1647604051610c44906119a0565b60006040518083038185875af1925050503d8060008114610c81576040519150601f19603f3d011682016040523d82523d6000602084013e610c86565b606091505b505050565b6000600160008473ffffffffffffffffffffffffffffffffffffffff1673ffffffffffffffffffffffffffffffffffffffff16815260200190815260200160002060008373ffffffffffffffffffffffffffffffffffffffff1673ffffffffffffffffffffffffffffffffffffffff16815260200190815260200160002054905092915050565b610d1a610f0f565b600073ffffffffffffffffffffffffffffffffffffffff168173ffffffffffffffffffffffffffffffffffffffff1603610d8c5760006040517f1e4fbdf7000000000000000000000000000000000000000000000000000000008152600401610d8391906118b4565b60405180910390fd5b610d9581610f96565b50565b600073ffffffffffffffffffffffffffffffffffffffff168373ffffffffffffffffffffffffffffffffffffffff1614158015610e0157503073ffffffffffffffffffffffffffffffffffffffff168373ffffffffffffffffffffffffffffffffffffffff1614155b8015610e1a5750600560149054906101000a900460ff16155b15610e51576040517f8574646f00000000000000000000000000000000000000000000000000000000815260040160405180910390fd5b610e5c83838361105c565b505050565b600033905090565b610e768383836001611281565b505050565b6000610e878484610c8b565b90507fffffffffffffffffffffffffffffffffffffffffffffffffffffffffffffffff8114610f095781811015610ef9578281836040517ffb8f41b2000000000000000000000000000000000000000000000000000000008152600401610ef0939291906119b5565b60405180910390fd5b610f0884848484036000611281565b5b50505050565b610f17610e61565b73ffffffffffffffffffffffffffffffffffffffff16610f35610a58565b73ffffffffffffffffffffffffffffffffffffffff1614610f9457610f58610e61565b6040517f118cdaa7000000000000000000000000000000000000000000000000000000008152600401610f8b91906118b4565b60405180910390fd5b565b6000600560009054906101000a900473ffffffffffffffffffffffffffffffffffffffff16905081600560006101000a81548173ffffffffffffffffffffffffffffffffffffffff021916908373ffffffffffffffffffffffffffffffffffffffff1602179055508173ffffffffffffffffffffffffffffffffffffffff168173ffffffffffffffffffffffffffffffffffffffff167f8be0079c531659141344cd1fd0a4f28419497f9722a3daafe3b4186f6b6457e060405160405180910390a35050565b600073ffffffffffffffffffffffffffffffffffffffff168373ffffffffffffffffffffffffffffffffffffffff16036110ae5780600260008282546110a291906114f4565b92505081905550611181565b60008060008573ffffffffffffffffffffffffffffffffffffffff1673ffffffffffffffffffffffffffffffffffffffff1681526020019081526020016000205490508181101561113a578381836040517fe450d38c000000000000000000000000000000000000000000000000000000008152600401611131939291906119b5565b60405180910390fd5b8181036000808673ffffffffffffffffffffffffffffffffffffffff1673ffffffffffffffffffffffffffffffffffffffff16815260200190815260200160002081905550505b600073ffffffffffffffffffffffffffffffffffffffff168273ffffffffffffffffffffffffffffffffffffffff16036111ca5780600260008282540392505081905550611217565b806000808473ffffffffffffffffffffffffffffffffffffffff1673ffffffffffffffffffffffffffffffffffffffff168152602001908152602001600020600082825401925050819055505b8173ffffffffffffffffffffffffffffffffffffffff168373ffffffffffffffffffffffffffffffffffffffff167fddf252ad1be2c89b69c2b068fc378daa952ba7f163c4a11628f55a4df523b3ef836040516112749190611537565b60405180910390a3505050565b600073ffffffffffffffffffffffffffffffffffffffff168473ffffffffffffffffffffffffffffffffffffffff16036112f35760006040517fe602df050000000000000000000000000000000000000000000000000000000081526004016112ea91906118b4565b60405180910390fd5b600073ffffffffffffffffffffffffffffffffffffffff168373ffffffffffffffffffffffffffffffffffffffff16036113655760006040517f94280d6200000000000000000000000000000000000000000000000000000000815260040161135c91906118b4565b60405180910390fd5b81600160008673ffffffffffffffffffffffffffffffffffffffff1673ffffffffffffffffffffffffffffffffffffffff16815260200190815260200160002060008573ffffffffffffffffffffffffffffffffffffffff1673ffffffffffffffffffffffffffffffffffffffff168152602001908152602001600020819055508015611452578273ffffffffffffffffffffffffffffffffffffffff168473ffffffffffffffffffffffffffffffffffffffff167f8c5be1e5ebec7d5bd14f71427d1e84f3dd0314c0f7b2291e5b200ac8c7c3b925846040516114499190611537565b60405180910390a35b50505050565b6040518060a0016040528060008152602001600081526020016000815260200160008152602001600081525090565b6000819050919050565b7f4e487b7100000000000000000000000000000000000000000000000000000000600052601160045260246000fd5b60006114cb82611487565b91506114d683611487565b92508282039050818111156114ee576114ed611491565b5b92915050565b60006114ff82611487565b915061150a83611487565b925082820190508082111561152257611521611491565b5b92915050565b61153181611487565b82525050565b600060208201905061154c6000830184611528565b92915050565b600081519050919050565b600082825260208201905092915050565b60005b8381101561158c578082015181840152602081019050611571565b60008484015250505050565b6000601f19601f8301169050919050565b60006115b482611552565b6115be818561155d565b93506115ce81856020860161156e565b6115d781611598565b840191505092915050565b600060208201905081810360008301526115fc81846115a9565b905092915050565b600080fd5b600073ffffffffffffffffffffffffffffffffffffffff82169050919050565b600061163482611609565b9050919050565b61164481611629565b811461164f57600080fd5b50565b6000813590506116618161163b565b92915050565b61167081611487565b811461167b57600080fd5b50565b60008135905061168d81611667565b92915050565b600080604083850312156116aa576116a9611604565b5b60006116b885828601611652565b92505060206116c98582860161167e565b9150509250929050565b60008115159050919050565b6116e8816116d3565b82525050565b600060208201905061170360008301846116df565b92915050565b61171281611487565b82525050565b60a08201600082015161172e6000850182611709565b5060208201516117416020850182611709565b5060408201516117546040850182611709565b5060608201516117676060850182611709565b50608082015161177a6080850182611709565b50505050565b600060a0820190506117956000830184611718565b92915050565b6000806000606084860312156117b4576117b3611604565b5b60006117c286828701611652565b93505060206117d386828701611652565b92505060406117e48682870161167e565b9150509250925092565b600060ff82169050919050565b611804816117ee565b82525050565b600060208201905061181f60008301846117fb565b92915050565b60006020828403121561183b5761183a611604565b5b600061184984828501611652565b91505092915050565b600060a0820190506118676000830188611528565b6118746020830187611528565b6118816040830186611528565b61188e6060830185611528565b61189b6080830184611528565b9695505050505050565b6118ae81611629565b82525050565b60006020820190506118c960008301846118a5565b92915050565b600080604083850312156118e6576118e5611604565b5b60006118f485828601611652565b925050602061190585828601611652565b9150509250929050565b7f4e487b7100000000000000000000000000000000000000000000000000000000600052602260045260246000fd5b6000600282049050600182168061195657607f821691505b6020821081036119695761196861190f565b5b50919050565b600081905092915050565b50565b600061198a60008361196f565b91506119958261197a565b600082019050919050565b60006119ab8261197d565b9150819050919050565b60006060820190506119ca60008301866118a5565b6119d76020830185611528565b6119e46040830184611528565b94935050505056fea2646970667358221220c66ef8f43040aa8b92ade2820fc3f0bbe8f6b27741cf2e2463439829495e682864736f6c63430008140033",
  "devdoc": {
    "errors": {
      "ERC20InsufficientAllowance(address,uint256,uint256)": [
        {
          "details": "Indicates a failure with the `spender`s `allowance`. Used in transfers.",
          "params": {
            "allowance": "Amount of tokens a `spender` is allowed to operate with.",
            "needed": "Minimum amount required to perform a transfer.",
            "spender": "Address that may be allowed to operate on tokens without being their owner."
          }
        }
      ],
      "ERC20InsufficientBalance(address,uint256,uint256)": [
        {
          "details": "Indicates an error related to the current `balance` of a `sender`. Used in transfers.",
          "params": {
            "balance": "Current balance for the interacting account.",
            "needed": "Minimum amount required to perform a transfer.",
            "sender": "Address whose tokens are being transferred."
          }
        }
      ],
      "ERC20InvalidApprover(address)": [
        {
          "details": "Indicates a failure with the `approver` of a token to be approved. Used in approvals.",
          "params": {
            "approver": "Address initiating an approval operation."
          }
        }
      ],
      "ERC20InvalidReceiver(address)": [
        {
          "details": "Indicates a failure with the token `receiver`. Used in transfers.",
          "params": {
            "receiver": "Address to which tokens are being transferred."
          }
        }
      ],
      "ERC20InvalidSender(address)": [
        {
          "details": "Indicates a failure with the token `sender`. Used in transfers.",
          "params": {
            "sender": "Address whose tokens are being transferred."
          }
        }
      ],
      "ERC20InvalidSpender(address)": [
        {
          "details": "Indicates a failure with the `spender` to be approved. Used in approvals.",
          "params": {
            "spender": "Address that may be allowed to operate on tokens without being their owner."
          }
        }
      ],
      "OwnableInvalidOwner(address)": [
        {
          "details": "The owner is not a valid owner account. (eg. `address(0)`)"
        }
      ],
      "OwnableUnauthorizedAccount(address)": [
        {
          "details": "The caller account is not authorized to perform an operation."
        }
      ]
    },
    "events": {
      "Approval(address,address,uint256)": {
        "details": "Emitted when the allowance of a `spender` for an `owner` is set by a call to {approve}. `value` is the new allowance."
      },
      "Transfer(address,address,uint256)": {
        "details": "Emitted when `value` tokens are moved from one account (`from`) to another (`to`). Note that `value` may be zero."
      }
    },
    "kind": "dev",
    "methods": {
      "allowance(address,address)": {
        "details": "See {IERC20-allowance}."
      },
      "approve(address,uint256)": {
        "details": "See {IERC20-approve}. NOTE: If `value` is the maximum `uint256`, the allowance is not updated on `transferFrom`. This is semantically equivalent to an infinite approval. Requirements: - `spender` cannot be the zero address."
      },
      "balanceOf(address)": {
        "details": "See {IERC20-balanceOf}."
      },
      "decimals()": {
        "details": "Returns the number of decimals used to get its user representation. For example, if `decimals` equals `2`, a balance of `505` tokens should be displayed to a user as `5.05` (`505 / 10 ** 2`). Tokens usually opt for a value of 18, imitating the relationship between Ether and Wei. This is the default value returned by this function, unless it's overridden. NOTE: This information is only used for _display_ purposes: it in no way affects any of the arithmetic of the contract, including {IERC20-balanceOf} and {IERC20-transfer}."
      },
      "name()": {
        "details": "Returns the name of the token."
      },
      "owner()": {
        "details": "Returns the address of the current owner."
      },
      "renounceOwnership()": {
        "details": "Leaves the contract without owner. It will not be possible to call `onlyOwner` functions. Can only be called by the current owner. NOTE: Renouncing ownership will leave the contract without an owner, thereby disabling any functionality that is only available to the owner."
      },
      "symbol()": {
        "details": "Returns the symbol of the token, usually a shorter version of the name."
      },
      "totalSupply()": {
        "details": "See {IERC20-totalSupply}."
      },
      "transfer(address,uint256)": {
        "details": "See {IERC20-transfer}. Requirements: - `to` cannot be the zero address. - the caller must have a balance of at least `value`."
      },
      "transferFrom(address,address,uint256)": {
        "details": "See {IERC20-transferFrom}. Emits an {Approval} event indicating the updated allowance. This is not required by the EIP. See the note at the beginning of {ERC20}. NOTE: Does not update the allowance if the current allowance is the maximum `uint256`. Requirements: - `from` and `to` cannot be the zero address. - `from` must have a balance of at least `value`. - the caller must have allowance for ``from``'s tokens of at least `value`."
      },
      "transferOwnership(address)": {
        "details": "Transfers ownership of the contract to a new account (`newOwner`). Can only be called by the current owner."
      }
    },
    "version": 1
  },
  "userdoc": {
    "kind": "user",
    "methods": {},
    "version": 1
  },
  "storageLayout": {
    "storage": [
      {
        "astId": 307,
        "contract": "contracts/CrowdFund.sol:CrowdFund",
        "label": "_balances",
        "offset": 0,
        "slot": "0",
        "type": "t_mapping(t_address,t_uint256)"
      },
      {
        "astId": 313,
        "contract": "contracts/CrowdFund.sol:CrowdFund",
        "label": "_allowances",
        "offset": 0,
        "slot": "1",
        "type": "t_mapping(t_address,t_mapping(t_address,t_uint256))"
      },
      {
        "astId": 315,
        "contract": "contracts/CrowdFund.sol:CrowdFund",
        "label": "_totalSupply",
        "offset": 0,
        "slot": "2",
        "type": "t_uint256"
      },
      {
        "astId": 317,
        "contract": "contracts/CrowdFund.sol:CrowdFund",
        "label": "_name",
        "offset": 0,
        "slot": "3",
        "type": "t_string_storage"
      },
      {
        "astId": 319,
        "contract": "contracts/CrowdFund.sol:CrowdFund",
        "label": "_symbol",
        "offset": 0,
        "slot": "4",
        "type": "t_string_storage"
      },
      {
        "astId": 8,
        "contract": "contracts/CrowdFund.sol:CrowdFund",
        "label": "_owner",
        "offset": 0,
        "slot": "5",
        "type": "t_address"
      },
      {
        "astId": 960,
        "contract": "contracts/CrowdFund.sol:CrowdFund",
        "label": "isComplete",
        "offset": 20,
        "slot": "5",
        "type": "t_bool"
      },
      {
        "astId": 962,
        "contract": "contracts/CrowdFund.sol:CrowdFund",
        "label": "endTime",
        "offset": 0,
        "slot": "6",
        "type": "t_uint256"
      },
      {
        "astId": 964,
        "contract": "contracts/CrowdFund.sol:CrowdFund",
        "label": "fundingGoal",
        "offset": 0,
        "slot": "7",
        "type": "t_uint256"
      },
      {
        "astId": 966,
        "contract": "contracts/CrowdFund.sol:CrowdFund",
        "label": "tokensLeftForFund",
        "offset": 0,
        "slot": "8",
        "type": "t_uint256"
      },
      {
        "astId": 969,
        "contract": "contracts/CrowdFund.sol:CrowdFund",
        "label": "tokenomics",
        "offset": 0,
        "slot": "9",
        "type": "t_struct(Tokenomics)954_storage"
      },
      {
        "astId": 973,
        "contract": "contracts/CrowdFund.sol:CrowdFund",
        "label": "contributions",
        "offset": 0,
        "slot": "14",
        "type": "t_mapping(t_address,t_uint256)"
      }
    ],
    "types": {
      "t_address": {
        "encoding": "inplace",
        "label": "address",
        "numberOfBytes": "20"
      },
      "t_bool": {
        "encoding": "inplace",
        "label": "bool",
        "numberOfBytes": "1"
      },
      "t_mapping(t_address,t_mapping(t_address,t_uint256))": {
        "encoding": "mapping",
        "key": "t_address",
        "label": "mapping(address => mapping(address => uint256))",
        "numberOfBytes": "32",
        "value": "t_mapping(t_address,t_uint256)"
      },
      "t_mapping(t_address,t_uint256)": {
        "encoding": "mapping",
        "key": "t_address",
        "label": "mapping(address => uint256)",
        "numberOfBytes": "32",
        "value": "t_uint256"
      },
      "t_string_storage": {
        "encoding": "bytes",
        "label": "string",
        "numberOfBytes": "32"
      },
      "t_struct(Tokenomics)954_storage": {
        "encoding": "inplace",
        "label": "struct Tokenomics",
        "members": [
          {
            "astId": 945,
            "contract": "contracts/CrowdFund.sol:CrowdFund",
            "label": "team",
            "offset": 0,
            "slot": "0",
            "type": "t_uint256"
          },
          {
            "astId": 947,
            "contract": "contracts/CrowdFund.sol:CrowdFund",
            "label": "liquidity",
            "offset": 0,
            "slot": "1",
            "type": "t_uint256"
          },
          {
            "astId": 949,
            "contract": "contracts/CrowdFund.sol:CrowdFund",
            "label": "marketing",
            "offset": 0,
            "slot": "2",
            "type": "t_uint256"
          },
          {
            "astId": 951,
            "contract": "contracts/CrowdFund.sol:CrowdFund",
            "label": "investors",
            "offset": 0,
            "slot": "3",
            "type": "t_uint256"
          },
          {
            "astId": 953,
            "contract": "contracts/CrowdFund.sol:CrowdFund",
            "label": "crowdFund",
            "offset": 0,
            "slot": "4",
            "type": "t_uint256"
          }
        ],
        "numberOfBytes": "160"
      },
      "t_uint256": {
        "encoding": "inplace",
        "label": "uint256",
        "numberOfBytes": "32"
      }
    }
  }
}